:0400000081312E29F3
:100008007E14803120308600013087004C30840017
:10001800003085000D302000C70016001A00C70BFD
:1000280011286A08DE006908DD00DC01DB01911E89
:100038001E281F282C298B310E238031003A0319E2
:10004800262827282C292000D901DA017F288B317E
:10005800332380312000C70059084C3E86008701B1
:100068004708810008304E06031D3B283C284D28D0
:1000780003304D06031D412842284D285C08031D06
:10008800462847284D28DB010130C7004708DC0017
:100098004D2802304E06031D522853286728033086
:1000A8004D06031D5828592867285C08031D5D283C
:1000B8005E2867280630C7004708DB000230C70003
:1000C8004708DC00672806304D06031D6C286D289C
:1000D8007A285C08031D712872287A280530C70021
:1000E8004708DB000330C7004708DC000130D907A8
:1000F8000030DA3D7F285B08C700C801C709C80976
:10010800C70A0319C80A47080D3EC9000030483D10
:10011800CA005A08803ACB004A08803A4B02031DAD
:10012800972849085902031C9A289B282B289C28A1
:10013800033020004D06031DA228A3280029EE281D
:10014800EE285D30C7004708FC004C308D3165252E
:1001580080312000D90157085D06031DB428B52851
:10016800002958085E06031DBA28BB2800294C3010
:100178008B31CB2380310230F1009030F2008B318B
:100188005D238031002900295D302000C700470821
:10019800FC004C308D31DF2580312000D30151081F
:1001A8005D06031DD828D928002952085E06031DBC
:1001B800DE28DF2800294C308B31FA2380310230C9
:1001C800F1009030F2008B315D2380310029002945
:1001D8000029002920004E08C700C8014808003A35
:1001E8000319F72800294708023A0319C8280A3AC8
:1001F8000319A52800290029063020004D06031DF3
:10020800062907292C295D30C7004708FC004C3017
:100218008E31D32680312000D40152085D06031D9B
:10022800162917292C2953085E06031D1C291D2988
:100238002C294C308C31292480310230F100903047
:10024800F2008B315D2380312C292C292C292C2973
:100258007E10090081313029FD015F3084000030B3
:10026800850010308731FA278131D830840000307A
:10027800850013308731FA2781312030840001301E
:10028800850037308731FA2781317E1020008C3184
:10029800F32C0034003400340034963430340734FE
:1002A80077342C3461340E34EE34BA345134093492
:1002B80099341934C4346D3407348F34F4346A34BF
:1002C80070343534A5346334E934A3349534643454
:1002D8009E3432348834DB340E34A434B834DC34FD
:1002E80079341E34E934D534E0348834D934D234FE
:1002F80097342B344C34B6340934BD347C34B1349F
:100308007E3407342D34B834E73491341D34BF3487
:10031800903464341034B7341D34F2342034B0349B
:100328006A3448347134B934F334DE344134BE3479
:1003380084347D34D434DA341A34EB34E434DD34A0
:100348006D345134B534D434F434C7348534D334AB
:100358008334563498346C341334C034A8346B3432
:1003680064347A34F9346234FD34EC34C934653495
:100378008A344F345C3401341434D9346C34063440
:10038800633463343D340F34FA34F5340D340834AF
:100398008D34C83420346E343B345E3410346934C0
:1003A8004C34E43441346034D534723471346734B5
:1003B800A234D134E43403343C344734D4340434E0
:1003C8004B34FD3485340D34D2346B34B5340A34AF
:1003D800A534FA34A834B53435346C349834B2348E
:1003E8004234D634C934BB34DB344034F934BC34F9
:1003F800AC34E3346C34D834323475345C34DF34A0
:100408004534CF340D34D634DC3459343D34D1340A
:10041800AB34AC343034D93426343A340034DE3496
:10042800513480345134D734C83416346134D0341C
:10043800BF34B534F434B43421342334C434B3343D
:10044800563499349534BA34CF340F34A534BD3486
:10045800B8349E34B8340234283408348834053427
:100468005F34B234D9340C34C6342434E9340B3410
:10047800B13487347C346F342F3411344C346834BD
:100488005834AB341D346134C1343D342D346634B2
:10049800B63490344134DC34763406347134DB3489
:1004A8000134BC342034D23498342A341034D5344E
:1004B800EF3489348534B13471341F34B534B634EB
:1004C8000634A534E434BF349F343334D434B834D8
:1004D800E834A234C934073478343434F934003475
:1004E8000F348E34A83409349634183498340E34C2
:1004F800E134BB340D346A347F342D343D346D34EB
:10050800083497346C346434913401345C34633483
:10051800E634F43451346B346B34623461346C3403
:100528001C34D8343034653485344E340034623465
:10053800F234ED34953406346C347B34A53401340C
:100548001B34C134F434083482345734C4340F347F
:10055800F534C634D934B03465345034E934B7345A
:100568001234EA34B834BE348B347C348834B93429
:10057800FC34DF341D34DD34623449342D34DA344C
:100588001534F3347C34D3348C3465344C34D4345B
:10059800FB3458346134B2344D34CE345134B5342C
:1005A8003A3474340034BC34A334E2343034BB34C9
:1005B800D4344134A534DF344A34D7349534D8346C
:1005C8003D346D34C434D134A434FB34F434D634DB
:1005D800D3346A34E93469344334FC34D9346E345E
:1005E8003434463488346734AD34D034B834603465
:1005F800DA3473342D3404344434E5341D3403348C
:1006080033345F344C340A34AA34C9347C340D345E
:10061800DD343C34713405345034AA344134023466
:100628002734103410340B34BE34863420340C3460
:10063800C9342534B53468345734B33485346F3409
:1006480020340934D4346634B9349F34E434613402
:10065800CE340E34F934DE345E349834C934D934A7
:10066800293422349834D034B034B434A834D7344C
:10067800C73417343D34B334593481340D34B43469
:100688002E343B345C34BD34B734AD346C34BA34B6
:10069800C03420348334B834ED34B634B334BF3482
:1006A8009A340C34E234B63403349A34D234B13444
:1006B800743439344734D534EA34AF347734D234E7
:1006C8009D3415342634DB34043483341634DC3456
:1006D800733412340B346334E33484343B34643479
:1006E80094343E346A346D340D34A8345A346A3440
:1006F8007A340B34CF340E34E4349D34FF34093467
:1007080093342734AE3400340A34B1349E34073479
:100718007D34443493340F34F034D234A334083461
:1007280087346834F23401341E34FE34C23406345B
:1007380069345D3457346234F734CB346734653404
:100748008034713436346C341934E73406346B34FD
:100758006E3476341B34D434FE34E0342B34D33442
:1007680089345A347A34DA341034CC344A34DD34A7
:1007780067346F34DF34B934F934F934EF34BE34C4
:100788008E344334BE34B7341734D5348E34B03451
:100798006034E834A334D634D6347E349334D13438
:1007A800A134C434C234D83438345234F234DF3447
:1007B8004F34F1346734BB34D13467345734BC34E4
:1007C800A634DD340634B5343F344B343634B234D1
:1007D8004834DA342B340D34D8344C341B340A34CE
:1007E800AF34F6344A340334363460347A3404345B
:1007F8004134C334EF346034DF345534DF34673484
:10080800A834EF348E346E3431347934BE346934DC
:1008180046348C34B3346134CB341A34833466347C
:10082800BC34A034D2346F3425343634E2346834DE
:100838005234953477340C34CC34033447340B3485
:10084800BB34B9341634023422342F3426340534F8
:100858005534BE343B34BA34C53428340B34BD3433
:10086800B23492345A34B4342B3404346A34B33442
:100878005C34A734FF34D734C2343134CF34D03465
:10088800B5348B349E34D9342C341D34AE34DE3434
:100898005B34B034C23464349B342634F234633469
:1008A800EC349C34A3346A3475340A3493346D348C
:1008B8000234A934063409349C343F3436340E34B7
:1008C800EB348534673407347234133457340034C6
:1008D800053482344A34BF34953414347A34B83405
:1008E800E234AE342B34B1347B3438341B34B63470
:1008F8000C349B348E34D23492340D34BE34D53417
:10090800E534B734EF34DC347C342134DF34DB3481
:100918000B34D434D234D33486344234E234D4342D
:10092800F134F834B334DD3468346E348334DA3473
:100938001F34CD341634BE3481345B342634B93494
:10094800F634E1347734B0346F3477344734B7341D
:100958001834E6345A340834883470346A340F341E
:10096800FF34CA343B34063466345C340B34013407
:100978001134FF349E3465348F346934AE346234B4
:10098800F834D334FF346B3461344534CF346C34A9
:1009980016347834E2340A34A034EE34D2340D34C8
:1009A800D7345434833404344E34C234B334033427
:1009B8003934613426346734A734F7341634603454
:1009C800D0344D34473469344934DB3477346E34A9
:1009D8003E344A346A34D134AE34DC345A34D634F2
:1009E800D93466340B34DF344034F0343B34D834F3
:1009F80037345334AE34BC34A934C5349E34BB3494
:100A0800DE347F34CF34B2344734E934FF34B5347C
:100A180030341C34F234BD34BD348A34C234BA3470
:100A2800CA3430349334B3345334A634A334B4348E
:100A3800243405343634D034BA3493340634D734B5
:100A4800CD3429345734DE345434BF346734D93480
:100A580023342E347A346634B334B8344A346134A7
:100A6800C43402341B3468345D3494342B346F340A
:100A78002A343734BE340B34B434A1348E340C34B5
:100A8800C3341B34DF3405345A348D34EF34023424
:100A98002D3421002F08B3003008B4003108B50008
:100AA8003208B6000630B335B40DB50DB60D890B56
:100AB800572D3608A3003508A2003408A1003308D2
:100AC800A0002F08B7003008B8003108B900320874
:100AD800BA000630B735B80DB90DBA0D890B6E2DB1
:100AE800B709B809B909BA09B70A0319B80A03193D
:100AF800B90A0319BA0A00303707A4002430383D70
:100B0800A500F430393DA60000303A3DA7008731F2
:100B18006127853121002108BC002008BB00013075
:100B28003C02003003193B02031C9B2D9C2DE42D35
:100B38002F08B3003008B4003108B5003208B600F9
:100B48000430B335B40DB50DB60D890BA52D360897
:100B5800A3003508A2003408A1003308A0002F081C
:100B6800B7003008B8003108B9003208BA000430BC
:100B7800B735B80DB90DBA0D890BBC2DB709B80931
:100B8800B909BA09B70A0319B80A0319B90A03193E
:100B9800BA0A00303707A4002430383DA500F430E5
:100BA800393DA60000303A3DA700873161278531DD
:100BB80021002108BC002008BB0029001615E42DDF
:100BC800013021003C02003003193B020318ED2DCF
:100BD800EE2DFE2D28008D0121003B0829009300F1
:100BE8001612951726000D158D1029001516961644
:100BF800FE2DFE2D08002100AF0009308400903042
:100C08008500003FA200013FA3002208B00023088E
:100C1800B100B201B30120082104031D142E152EC2
:100C28001C2E3009A0003109A100AF2EAF2E1C2EBA
:100C3800AE012F08860087010108A200A30122083F
:100C4800A300A2012208AC002308AD000130A200D5
:100C58002208AF0708302E02031C332E342E362EFE
:100C68009F2E9F2E00302C05A20080302D05A3005A
:100C78002208A4002308A500A601A701003030051A
:100C8800A80080303105A90000303205AA000030E4
:100C98003305AB002808A4062908A5062A08A606D5
:100CA8002B08A706270826042504240403195D2E0B
:100CB8005E2E882E0B30840090308500003FA20005
:100CC800013FA300A401A5013008A6003108A70030
:100CD8003208A8003308A9000130A635A70DA80DD1
:100CE800A90D890B712E2608A2062708A306280835
:100CF800A4062908A5062508B3002408B20023087D
:100D0800B1002208B0008F2E0130B035B10DB20D00
:100D1800B30D890B892E0130A2002208AE070130DD
:100D2800AC35AD0D890B942E08302E02031C9D2E78
:100D38009E2E362E9F2E0130A0020030A13B2008A7
:100D48002104031DA82EA92E1C2EAA2E3108A100AD
:100D58003008A000AF2E08002000A200093084004F
:100D680090308500003FF200013FF3007208A400B4
:100D78007308A500A601A70170087104031DC52EFC
:100D8800C62ECD2E2409F0002509F100602F602F12
:100D9800CD2EA3012208860087010108F200F30185
:100DA8007208F300F2017208A0007308A100013074
:100DB800F2007208A20708302302031CE42EE52E75
:100DC800E72E502F502F00302005F20080302105EB
:100DD800F3007208F4007308F500F601F70100301B
:100DE8002405F80080302505F90000302605FA00B2
:100DF80000302705FB007808F4067908F5067A081C
:100E0800F6067B08F7067708760475047404031958
:100E18000E2F0F2F392F0B30840090308500003FA4
:100E2800F200013FF300F401F5012408F60025085B
:100E3800F7002608F8002708F9000130F635F70D05
:100E4800F80DF90D890B222F7608F2067708F306BC
:100E58007808F4067908F5067508A7007408A6004E
:100E68007308A5007208A400402F0130A435A50D11
:100E7800A60DA70D890B3A2F0130F2007208A307BF
:100E88000130A035A10D890B452F08302302031C22
:100E98004E2F4F2FE72E502F0130F0020030F13B3C
:100EA80070087104031D592F5A2FCD2E5B2F25086A
:100EB800F1002408F000602F08002100AA01A31FF8
:100EC800662F672F742FA009A109A209A309A00AF8
:100ED8000319A10A0319A20A0319A30AAA01AA0A53
:100EE800A71F772F782F882FA409A509A609A70976
:100EF800A40A0319A50A0319A60A0319A70A0130A7
:100F0800A8002808AA06882F0030AE000030AD00DF
:100F18000030AC000030AB00230822042104200478
:100F28000319972F982FDF2FA901A90AA72F01309E
:100F3800A035A10DA20DA30D890B9C2F0130A8008F
:100F48002808A907A72FA31FAA2FAB2F9B2FAD2FC8
:100F5800AD2F0130AB35AC0DAD0DAE0D890BAE2FFD
:100F680023082702031DC22F22082602031DC22FB1
:100F780021082502031DC22F20082402031CC52FA7
:100F8800C62FD02F2008A4022108A53B2208A63B83
:100F98002308A73B2B14D02F0130A336A20CA10C99
:100FA800A00C890BD12F0130A902031DDC2FDD2FE6
:100FB800AD2FDF2FDF2F2A080319E32FE42FF02F9F
:100FC800AB09AC09AD09AE09AB0A0319AC0A0319A0
:100FD800AD0A0319AE0AF02F2E08A3002D08A200AF
:100FE8002C08A1002B08A000F92F0800640080013C
:080FF8000131890BFB2F0034CD
:1016080023001E0C0139082B0800C0308B00210074
:10161800911608002000110E890C0139132B0800BF
:101628002000140E890C0139192B0800F0001C2B1E
:101638002900961C202B212B1C2B222B7008920092
:1016480008002100A000282B23009E1C2C2B2D2BEA
:10165800282B2E2B2100200823009A0008002300A5
:101668009D1C372B382B3E2B1D12000023001D1606
:101678003E2B3E2B2000911E422B432B3E2B442B0E
:1016880023001908472B08002900951C4C2B4D2BCB
:10169800532B1512000029001516532B532B20002D
:1016A800941E572B582B532B592B290011085C2BB0
:1016B8000800F401F5016F2B7108740784007208A3
:1016C800753D850000088B311A238B310130F407F2
:1016D8000030F53D6F2B7108740784007208753D62
:1016E80085001200031D792B7A2B602B7B2B0800B9
:1016F8002100A400A501A601932B8B3148238B312F
:101708002100A20025082407A300230886008701DA
:10171800220881000130A5070030A63D932B21083F
:101728002602031D992B20082502031C9C2B9D2BA8
:10173800812B9E2B08002100A400A501A601A42B43
:1017480024088600870101088B3125238B3101305D
:101758002100A3002308A4070130A5070030A63DF7
:101768002408860087010108031DBB2BBC2BA42B72
:1017780022082606031DC22B21082506031DC52B9A
:10178800C62BA42BA501A601CA2BA42B0800F20086
:10179800F301F4017408803AF10080307102031DEE
:1017A800D72B0D307302031CDA2BDB2BDD2BF92B27
:1017B800F92B73087207F100710886008701010888
:1017C8008B311A238B310130F3070030F43D740854
:1017D800803AF10080307102031DF42B0D30730242
:1017E800031CF72BF82BDD2BF92B0800F200F30173
:1017F800F4017408803AF10080307102031D062C50
:1018080007307302031C092C0A2C0C2C282C282CBA
:1018180073087207F10071088600870101088B318F
:101828001A238B310130F3070030F43D7408803AF5
:10183800F10080307102031D232C07307302031C52
:10184800262C272C0C2C282C0800F200F301F4017C
:101858007408803AF10080307102031D352C08307D
:101868007302031C382C392C3B2C572C572C73082B
:101878007207F10071088600870101088B311A236D
:101888008C310130F3070030F43D7408803AF100E0
:1018980080307102031D522C08307302031C552C32
:1018A800562C3B2C572C0800F500F7019D2CF8010D
:1018B80008307802031C612C622C642C982C982C1C
:1018C80077087507F2007208860087010108F3009F
:1018D800780A6F2CF336890B6E2C7308F4007408A1
:1018E800F60076080139F2007803FF3A073E890AC4
:1018F8007E2CF235890B7D2C7208F3007703FF3AB2
:101908007107FF3E7007F4007408860087017308AA
:1019180081070130F2007208F80708307802031CCA
:10192800962C972C642C982C0130F2007208F7073B
:101938009D2C71087702031CA22CA32C5B2CA42CD1
:1019480008002100A700A601EB2CA80108302802F6
:10195800031CAF2CB02CB22CE62CE62C260827074B
:10196800A2002208860087010108A300280ABD2CCE
:10197800A336890BBC2C2308A4002408A50025083D
:101988000139A2002803FF3A073E890ACC2CA23568
:10199800890BCB2C2208A3002603FF3A2107FF3E20
:1019A8002007A40024088600870123088107013046
:1019B800A2002208A80708302802031CE42CE52C02
:1019C800B22CE62C0130A2002208A607EB2C210835
:1019D8002602031CF02CF12CA92CF22C08007A30DA
:1019E800210099006A08CA004A08CD00CB01CC0141
:1019F8000030B2000030B1002530B0008030AF00B8
:101A08008F3151278C3100302100B2000030B100F5
:101A18002530B0008030AF0085314D258C318B31B9
:101A280009238C31172D4330860001308700CE30D2
:101A380084000030850008302100CA0016001A0012
:101A4800CA0B222D6508D7006408D6008B311423F1
:101A58008C31003A0319312D322D172D0630210013
:101A6800A0000030A100CE308B317C238C31D630E1
:101A78002100CA004A08B400CE308E3159268C3174
:101A880021005608CA004A08D4005708CA004A0864
:101A9800D500D6018B3104238C31003A0319552D1A
:101AA800562D172D08302100A1000030A200CE309D
:101AB8008B319F238C31172D172D172D172D813121
:101AC8002E292000C00038308600013087003530CC
:101AD8008400003085000B30A80016001A00A80BFF
:101AE800712D2D308600013087002A3084000030A7
:101AF80085000B30A80016001A00A80B7F2D6C0873
:101B0800C2006B08C1003530A8002808F0000B306F
:101B1800A9002908F10040088C3158248D31200093
:101B2800C501C601003046020B3003194502031CEB
:101B38009E2D9F2DA12DBD2DBD2D4503FF3A0A3E9B
:101B4800353E860087010108A80045082A3E860020
:101B58008701280881000130C5070030C63D0030E4
:101B680046020B3003194502031CBB2DBC2DA12DC9
:101B7800BD2D0B30F0000030F1002A308631B02640
:101B88008D3171082000C4007008C3004308A80004
:101B98002808C1004408A8002808C2007C08A8003A
:101BA8002808F0000230A9002908F10041308C31E2
:101BB80058248D3108002000B400643086000030BD
:101BC80087002F308400003085000530A8001600FB
:101BD8001A00A80BEB2D5F308600003087002A30F2
:101BE8008400003085000530A80016001A00A80BF4
:101BF800F92D6E08B6006D08B5002F30A80028082A
:101C0800F0000530A9002908F10034088C31582467
:101C18008D312000B901BA0100303A0205300319AC
:101C28003902031C182E192E1B2E372E372E390376
:101C3800FF3A043E2F3E860087010108A8003908B4
:101C48002A3E86008701280881000130B907003044
:101C5800BA3D00303A02053003193902031C352E0B
:101C6800362E1B2E372E0530F0000030F1002A30BA
:101C78008631B0268D3171082000B8007008B70091
:101C88003708A8002808B5003808A8002808B600B2
:101C98007C08A8002808F0000230A9002908F100F3
:101CA80035308C3158248D3108002100C500DE30D4
:101CB800860000308700BD30840000308500063083
:101CC800B50016001A00B50B652ED8308600003016
:101CD8008700B7308400003085000630B500160054
:101CE8001A00B50B732E6708C4006608C300BD3020
:101CF800B5003508A0000630B6003608A100450832
:101D08008C31A5248E312100C801C9010030490257
:101D1800063003194802031C922E932E952EB12EDD
:101D2800B12E4803FF3A053EBD3E860087010108F3
:101D3800B5004808B73E86008701350881000130A4
:101D4800C8070030C93D003049020630031948026F
:101D5800031CAF2EB02E952EB12E0630A0000030F9
:101D6800A100B7308531FF258E3121002108C70039
:101D78002008C6004608B5003508C3004708B50066
:101D88003508C4003408B5003508A0000230B60094
:101D98003608A100C3308C31A5248E3108002000FC
:101DA800AA00DE308600003087002B308400003027
:101DB80085000630A80016001A00A80BDF2ED830C0
:101DC80086000030870031308400003085000630FE
:101DD800A80016001A00A80BED2E210067082000A5
:101DE800B800210066082000B7002B30A80028089A
:101DF800F0000630A9002908F1002A088C3158247F
:101E08008E312000BB01BC0100303C0206300319B2
:101E18003B02031C102F112F132F2F2F2F2F3B03A3
:101E2800FF3A053E2B3E860087010108A8003B08C3
:101E3800313E86008701280881000130BB07003049
:101E4800BC3D00303C02063003193B02031C2D2F19
:101E58002E2F132F2F2F0630F0000030F1003130D5
:101E68008631B0268E3171082000BA007008B9009A
:101E78003908A8002808B7003A08A8002808B800B8
:101E88007C08A8002808F0000230A9002908F10001
:101E980037308C3158248E31080021002F08B300C8
:101EA8003008B4003108B5003208B6000630B33542
:101EB800B40DB50DB60D890B5B2F3608A300350898
:101EC800A2003408A1003308A0002F08B70030088A
:101ED800B8003108B9003208BA000630B735B80D75
:101EE800B90DBA0D890B722FB709B809B909BA0922
:101EF800B70A0319B80A0319B90A0319BA0A00304C
:101F08003707A4002430383DA500F430393DA60039
:101F180000303A3DA700873161278F312100210821
:101F2800BC002008BB0001303C02003003193B0212
:101F3800031C9F2FA02FE82F2F08B3003008B400F0
:101F48003108B5003208B6000430B335B40DB50D0C
:101F5800B60D890BA92F3608A3003508A20034084E
:101F6800A1003308A0002F08B7003008B8003108D6
:101F7800B9003208BA000430B735B80DB90DBA0D3A
:101F8800890BC02FB709B809B909BA09B70A0319E3
:101F9800B80A0319B90A0319BA0A00303707A400A6
:101FA8002430383DA500F430393DA60000303A3DD4
:101FB800A700873161278F3121002108BC00200844
:101FC800BB0023001E15E82F013021003C02003021
:101FD80003193B020318F12FF22FFF2F3B082300B0
:101FE8009B001E129D1721008E170E1323001D162D
:101FF8009E16FF2FFF2F0800183400344F344B343F
:102008000034B7341D34C1340434FF34FF3405348C
:06201800803400340034A6
:020000040001F9
:08000000FF3FFF3FFF3FFF3F00
:04000E00E4FFFFFF0D
:00000001FF
