:060000000A128A11122809
:10000800FE00030E83120313CD000408CE000A0875
:10001800CF007F08D0000A128A115A280A128A11C2
:1000280015288317B430FD001730FE009B30FF0001
:10003800A63084000A128A11F1250A128A11831344
:10004800EC30FD001730FE006E30FF00E430840015
:100058000A128A11F1250A128A116930FD00173037
:10006800FE007630FF00603084000A128A11F12504
:100078000A128A11831790308400A6300A168A1152
:1000880066270A128A118313A0308400C2300A1628
:100098008A1166270A128A11E901EA01EB01EC01CB
:1000A800ED01EE0183010A128A15B72E8316031398
:1000B800410883120313DA008316031340088312DE
:1000C8000313D900831603133F0883120313DE00BA
:1000D800831603133E0883120313DD005130840096
:1000E800A030C9000408CA000830CB0049088400C1
:1000F80083130008CC00C90A4A0884004C08800011
:10010800CA0ACB0B7A28DF018C1E8B288C28AF2DCE
:100118000830F0000030F10051300A168A11DB2750
:100128000A128A11593083120313C9004908FC00C6
:1001380051300A128A1523230A128A1183120313D3
:100148005308C900CA014908DB004A08DC00540802
:10015800C900CA015B08CC00CB0149084B04DB008D
:100168004A084C04DC0057085906031DBC28BD2862
:10017800AF2D58085A06031DC228C328AF2D0330D7
:100188005206031DC828C9288E2DA62AA62ADF01D3
:1001980008305F02031CD128D228D428F528F52876
:1001A8005F08C900CA014908F0004A08F1000A16A8
:1001B8008A117F270A128A1183120313CB005F0862
:1001C800033EA63E84004B08831780000130C90017
:1001D8004908DF0708305F02031CF328F428D428F5
:1001E800F5285D30C9004908FC00A6300A128A15B6
:1001F800BC230A128A11831203135D08C900490837
:1002080083160317B100831203135E08C900490857
:1002180083160317B2000A168A115A270A128A117E
:10022800003A031918291929AF2DA630F100013019
:10023800F2000D30F3000030F4000A128A11BC25D8
:100248000A128A11AF2DAF2D83120313DF0102307A
:100258005F02031C302931293329542954295F08A6
:10026800EE3EF000033003180430F1000A168A113C
:100278007F270A128A1183120313C9005F08033EFD
:10028800E43E84004908831380000130C90049080E
:10029800DF0702305F02031C5229532933295429EE
:1002A8005D30C9004908FC00E4300A128A15902222
:1002B8000A128A11831203135D08C90049088316BC
:1002C8000313E900831203135E08C9004908831663
:1002D8000313EA000A168A115A270A128A11003AE9
:1002E800031977297829AF2DE430F1000030F200A6
:1002F8000730F3000030F4000A128A11BC250A12F4
:100308008A11AF2DAF2D83120313DF0102305F0274
:10031800031C8F2990299229B329B3295F08F03E3D
:10032800F000033003180430F1000A168A117F2701
:100338000A128A1183120313C9005F08033EE43EC0
:1003480084004908831380000130C9004908DF0789
:1003580002305F02031CB129B2299229B3295D300A
:10036800C9004908FC00E4300A128A1590220A12D2
:100378008A11831203135D08C90049088316031301
:10038800E900831203135E08C900490883160313A2
:10039800EA000A168A115A270A128A11003A031922
:1003A800D629D729AF2DE430F1000030F20007300C
:1003B800F3000030F4000A128A11BC250A128A11CF
:1003C800AF2DAF2D83120313DF0102305F02031C30
:1003D800EE29EF29F129122A122A5F08F23EF000CD
:1003E800033003180430F1000A168A117F270A1215
:1003F8008A1183120313C9005F08033EE43E840098
:100408004908831380000130C9004908DF0702301A
:100418005F02031C102A112AF129122A5D30C90033
:100428004908FC00E4300A128A1590220A128A113F
:10043800831203135D08C900490883160313E900F2
:10044800831203135E08C900490883160313EA00E0
:100458000A168A115A270A128A11003A0319352AEC
:10046800362AAF2DE430F1000030F2000730F300F7
:100478000030F4000A128A11BC250A128A11AF2D25
:10048800AF2D83120313DF0102305F02031C4D2AD4
:100498004E2A502A712A712A5F08D23EF00007308E
:1004A80003180830F1000A168A117F270A128A11E8
:1004B80083120313C9005F08033EE43E8400490821
:1004C800831380000130C9004908DF0702305F024A
:1004D800031C6F2A702A502A712A5D30C900490806
:1004E800FC00E4300A128A1590220A128A1183123B
:1004F80003135D08C900490883160313E900831232
:1005080003135E08C900490883160313EA000A1694
:100518008A115A270A128A11003A0319942A952A2D
:10052800AF2DE430F1000030F2000730F300003066
:10053800F4000A128A11BC250A128A11AF2DAF2DB8
:10054800AF2DAF2D831203135C08003A0319B32AA9
:10055800103A0319B82A303A0319C32AAF2D5B0899
:10056800003A0319CB28AF2D5B08063A031928294E
:100578000E3A03198729183A0319E629AF2D5B08A3
:10058800023A0319452AAF2DAF2D8E2DDF01023017
:100598005F02031CD02AD12AD32AF52AF52A5F083C
:1005A800E83EF000033003180430F1005F08043E11
:1005B800513E840083130008C9004908F2000A125A
:1005C8008A1520220A128A11013083120313C900E6
:1005D8004908DF0702305F02031CF32AF42AD32AF2
:1005E800F52A5B08C9004908E3005C08C900490806
:1005F800E200DF0102305F02031C032B042B062BF1
:10060800272B272B5F08E83EF0000330031804303F
:10061800F1000A168A117F270A128A11831203131E
:10062800C9005F08043E603E8400490883138000C7
:100638000130C9004908DF0702305F02031C252B7F
:10064800262B062B272B5D30C9004908FC0060309B
:100658000A128A1523230A128A11831203135D08CA
:10066800C9004908E6005E08C9004908E7000A16FB
:100678008A115A270A128A11003A0319442B452B6A
:10068800AF2D6030F1000030F2000830F300003088
:10069800F4000A128A11BC250A128A11AF2DAF2D57
:1006A80083120313DF0102305F02031C5C2B5D2BF6
:1006B8005F2B812B812B5F08EC3EF0000330031881
:1006C8000430F1005F08043E513E840083130008A3
:1006D800C9004908F2000A128A1520220A128A1152
:1006E800013083120313C9004908DF0702305F0293
:1006F800031C7F2B802B5F2B812B5B08C9004908CB
:10070800E3005C08C9004908E200DF0102305F022B
:10071800031C8F2B902B922BB32BB32B5F08EC3E33
:10072800F000033003180430F1000A168A117F27FD
:100738000A128A1183120313C9005F08043E603E3F
:1007480084004908831380000130C9004908DF0785
:1007580002305F02031CB12BB22B922BB32B5D30FE
:10076800C9004908FC0060300A128A1523230A12BE
:100778008A11831203135D08C9004908E6005E0860
:10078800C9004908E7000A168A115A270A128A116D
:10079800003A0319D02BD12BAF2D6030F100003077
:1007A800F2000830F3000030F4000A128A11BC2568
:1007B8000A128A11AF2DAF2D83120313DF01023005
:1007C8005F02031CE82BE92BEB2B0D2C0D2C5F088B
:1007D800F23EF000033003180430F1005F08043ED5
:1007E800513E840083130008C9004908F2000A1228
:1007F8008A1520220A128A11013083120313C900B4
:100808004908DF0702305F02031C0B2C0C2CEB2B72
:100818000D2C5B08C9004908E3005C08C9004908B9
:10082800E200DF0102305F02031C1B2C1C2C1E2C73
:100838003F2C3F2C5F08F23EF000033003180430D1
:10084800F1000A168A117F270A128A1183120313EC
:10085800C9005F08043E603E840049088313800095
:100868000130C9004908DF0702305F02031C3D2C34
:100878003E2C1E2C3F2C5D30C9004908FC0060301E
:100888000A128A1523230A128A11831203135D0898
:10089800C9004908E6005E08C9004908E7000A16C9
:1008A8008A115A270A128A11003A03195C2C5D2C06
:1008B800AF2D6030F1000030F2000830F300003056
:1008C800F4000A128A11BC250A128A11AF2DAF2D25
:1008D80083120313DF0102305F02031C742C752C92
:1008E800772C992C992C5F08D23EF000073003181A
:1008F8000830F1005F08043E513E8400831300086D
:10090800C9004908F2000A128A1520220A128A111F
:10091800013083120313C9004908DF0702305F0260
:10092800031C972C982C772C992C5608C900490839
:10093800E0005B08C9004908E3005C08C9004908F1
:10094800E200DF0102305F02031CAB2CAC2CAE2CA2
:10095800CF2CCF2C5F08D23EF000073003180830A8
:10096800F1000A168A117F270A128A1183120313CB
:10097800C9005F08043E603E840049088313800074
:100988000130C9004908DF0702305F02031CCD2C83
:10099800CE2CAE2CCF2C5D30C9004908FC0060304D
:1009A8000A128A1523230A128A11831203135D0877
:1009B800C9004908E6005E08C9004908E7000A16A8
:1009C8008A115A270A128A11003A0319EC2CED2CC5
:1009D800FB2C6030F1000030F2000830F3000030EA
:1009E800F4000A128A11BC250A128A11FB2C06305F
:1009F80083120313C9004908E000AF2DDF0102305C
:100A08005F02031C082D092D0B2D2D2D2D2D5F08A0
:100A1800E43EF000073003180830F1005F08043E98
:100A2800513E840083130008C9004908F2000A12E5
:100A38008A1520220A128A11013083120313C90071
:100A48004908DF0702305F02031C2B2D2C2D0B2DCC
:100A58002D2D5B08C9004908E3005C08C900490856
:100A6800E200DF0102305F02031C3B2D3C2D3E2DCE
:100A78005F2D5F2D5F08E43EF00007300318083053
:100A8800F1000A168A117F270A128A1183120313AA
:100A9800C9005F08043E603E840049088313800053
:100AA8000130C9004908DF0702305F02031C5D2DD1
:100AB8005E2D3E2D5F2D5D30C9004908FC00603079
:100AC8000A128A1523230A128A11831203135D0856
:100AD800C9004908E6005E08C9004908E7000A1687
:100AE8008A115A270A128A11003A03197C2D7D2D82
:100AF800AF2D6030F1000030F2000830F300003014
:100B0800F4000A128A11BC250A128A11AF2DAF2DE2
:100B1800AF2DAF2D831203135C08103A0319982DDB
:100B2800303A0319A32DAF2D5B08003A0319CA2ADE
:100B3800043A0319542B143A0319E02BAF2D5B0820
:100B4800023A03196C2C223A0319022DAF2DAF2D4E
:100B5800AF2DAF2DAF2D831203135008FF004F08A0
:100B68008A004E0884004D0E8300FE0E7E0E09009A
:100B7800F501F601BF2D710884008317721C8313D9
:100B880000080A168A118D270A128A110130F10706
:100B98000318F20A0130F5070318F60A0030F607C1
:100BA800710884008317721C83130008031DDD2D50
:100BB800DE2DBF2D74087606031DE42D7308750617
:100BC800031DE72DE82DBF2DF501F601EC2DBF2DF6
:100BD80008007E088A007F0882000A128A11ED2523
:100BE8000A128A118000840A04087D060319003459
:100BF800FF0A0319FE0AF12DFF1B0A2E83137F1823
:100C080083170008840A0319FF0A08007F087F3940
:100C18008A000408840A0319FF0A82000034003499
:100C28000034003496343034073477342C3461344B
:100C38000E34EE34BA345134093499341934C43486
:100C48006D3407348F34F4346A3470343534A53451
:100C58006334E934A334953464349E3432348834AC
:100C6800DB340E34A434B834DC3479341E34E9343B
:100C7800D534E0348834D934D23497342B344C34D6
:100C8800B6340934BD347C34B1347E3407342D3461
:100C9800B834E73491341D34BF349034643410349C
:100CA800B7341D34F2342034B0346A3448347134E3
:100CB800B934F334DE344134BE3484347D34D4342E
:100CC800DA341A34EB34E434DD346D345134B53469
:100CD800D434F434C7348534D33483345634983414
:100CE8006C341334C034A8346B3464347A34F93433
:100CF8006234FD34EC34C93465348A344F345C349E
:100D080001341434D9346C340634633463343D34D8
:100D18000F34FA34F5340D3408348D34C8342034A3
:100D28006E343B345E34103469344C34E43441342A
:100D38006034D534723471346734A234D134E43435
:100D480003343C344734D43404344B34FD348534D0
:100D58000D34D2346B34B5340A34A534FA34A8349B
:100D6800B53435346C349834B2344234D634C9345A
:100D7800BB34DB344034F934BC34AC34E3346C3445
:100D8800D834323475345C34DF344534CF340D34E0
:100D9800D634DC3459343D34D134AB34AC3430340B
:100DA800D93426343A340034DE3451348034513462
:100DB800D734C83416346134D034BF34B534F4343D
:100DC800B43421342334C434B33456349934953488
:100DD800BA34CF340F34A534BD34B8349E34B83463
:100DE800023428340834883405345F34B234D934B2
:100DF8000C34C6342434E9340B34B13487347C34AD
:100E08006F342F3411344C3468345834AB341D34B7
:100E18006134C1343D342D346634B63490344134B1
:100E2800DC34763406347134DB340134BC34203499
:100E3800D23498342A341034D534EF348934853494
:100E4800B13471341F34B534B6340634A534E434BF
:100E5800BF349F343334D434B834E834A234C9347A
:100E6800073478343434F93400340F348E34A834E9
:100E780009349634183498340E34E134BB340D34C4
:100E88006A347F342D343D346D34083497346C34EF
:100E98006434913401345C346334E634F4345134CA
:100EA8006B346B34623461346C341C34D834303471
:100EB800653485344E3400346234F234ED3495347C
:100EC80006346C347B34A53401341B34C134F43417
:100ED800083482345734C4340F34F534C634D93422
:100EE800B03465345034E934B7341234EA34B834A1
:100EF800BE348B347C348834B934FC34DF341D344C
:100F0800DD34623449342D34DA341534F3347C3426
:100F1800D3348C3465344C34D434FB345834613491
:100F2800B2344D34CE345134B5343A347434003498
:100F3800BC34A334E2343034BB34D4344134A53423
:100F4800DF344A34D7349534D8343D346D34C4341E
:100F5800D134A434FB34F434D634D3346A34E93489
:100F680069344334FC34D9346E34343446348834E8
:100F78006734AD34D034B8346034DA3473342D3453
:100F880004344434E5341D34033433345F344C348E
:100F98000A34AA34C9347C340D34DD343C34713419
:100FA80005345034AA344134023427341034103410
:100FB8000B34BE34863420340C34C9342534B5346B
:100FC80068345734B33485346F3420340934D43416
:100FD8006634B9349F34E4346134CE340E34F93491
:100FE800DE345E349834C934D93429342234983400
:100FF800D034B034B434A834D734C73417343D347B
:10100800B334593481340D34B4342E343B345C3425
:10101800BD34B734AD346C34BA34C034203483347E
:10102800B834ED34B634B334BF349A340C34E234C3
:10103800B63403349A34D234B1347434393447343E
:10104800D534EA34AF347734D2349D341534263469
:10105800DB34043483341634DC34733412340B3404
:101068006334E33484343B34643494343E346A3433
:101078006D340D34A8345A346A347A340B34CF348E
:101088000E34E4349D34FF34093493342734AE34B9
:1010980000340A34B1349E3407347D3444349334F4
:1010A8000F34F034D234A334083487346834F2343B
:1010B80001341E34FE34C234063469345D34573486
:1010C8006234F734CB346734653480347134363461
:1010D8006C341934E73406346B346E3476341B348C
:1010E800D434FE34E0342B34D33489345A347A344B
:1010F800DA341034CC344A34DD3467346F34DF34B6
:10110800B934F934F934EF34BE348E344334BE3450
:10111800B7341734D5348E34B0346034E834A3345B
:10112800D634D6347E349334D134A134C434C23462
:10113800D83438345234F234DF344F34F13467342D
:10114800BB34D13467345734BC34A634DD34063468
:10115800B5343F344B343634B2344834DA342B3473
:101168000D34D8344C341B340A34AF34F6344A3492
:101178000334363460347A3404344134C334EF34BD
:101188006034DF345534DF346734A834EF348E34B8
:101198006E3431347934BE34693446348C34B334E3
:1011A8006134CB341A3483346634BC34A034D2343A
:1011B8006F3425343634E234683452349534773415
:1011C8000C34CC34033447340B34BB34B9341634C0
:1011D800023422342F34263405345534BE343B349B
:1011E800BA34C53428340B34BD34B23492345A344A
:1011F800B4342B3404346A34B3345C34A734FF3445
:10120800D734C2343134CF34D034B5348B349E34EF
:10121800D9342C341D34AE34DE345B34B034C234AB
:1012280064349B342634F2346334EC349C34A33471
:101238006A3475340A3493346D340234A93406346C
:1012480009349C343F3436340E34EB3485346734F7
:1012580007347234133457340034053482344A3432
:10126800BF34953414347A34B834E234AE342B3481
:10127800B1347B3438341B34B6340C349B348E345C
:10128800D23492340D34BE34D534E534B734EF3427
:10129800DC347C342134DF34DB340B34D434D234C2
:1012A800D33486344234E234D434F134F834B334A9
:1012B800DD3468346E348334DA341F34CD34163474
:1012C800BE3481345B342634B934F634E1347734AF
:1012D800B0346F3477344734B7341834E6345A347A
:1012E8000834883470346A340F34FF34CA343B34D9
:1012F800063466345C340B3401341134FF349E34C4
:1013080065348F346934AE346234F834D334FF34FE
:101318006B3461344534CF346C3416347834E23469
:101328000A34A034EE34D2340D34D73454348334F0
:1013380004344E34C234B33403343934613426347B
:101348006734A734F73416346034D0344D34473416
:1013580069344934DB3477346E343E344A346A3481
:10136800D134AE34DC345A34D634D93466340B3400
:10137800DF344034F0343B34D83437345334AE346B
:10138800BC34A934C5349E34BB34DE347F34CF3406
:10139800B2344734E934FF34B53430341C34F234D1
:1013A800BD34BD348A34C234BA34CA343034933488
:1013B800B3345334A634A334B43424340534363423
:1013C800D034BA3493340634D734CD34293457342E
:1013D800DE345434BF346734D93423342E347A3469
:1013E8006634B334B8344A346134C43402341B34F8
:1013F80068345D3494342B346F342A343734BE3433
:101408000B34B434A1348E340C34C3341B34DF347D
:1014180005345A348D34EF3402342D34B7341D3446
:10142800C1340434FF34FF340534803400340034CC
:041438001834003430
:101440007008831203178D0072088C00831603172F
:101450008C130C158B1355308D00AA308D008C1415
:101460008B17322A831203130D1E372A382A322A89
:101470000D120800F901882AFA0108307A02031CCB
:10148000422A432A452A832A832A79087007F400CE
:1014900071080318013EF500740884008317751C59
:1014A00083130008F6007A0A572A0310F60CFF3E51
:1014B000031D552A7608F7007708F80078080139E7
:1014C000F4007A03FF3A073E013E682A0310F40D48
:1014D000FF3E031D662A7408F5007903FF3A73077F
:1014E000FF3E7207F60076088400750883138007B4
:1014F0000130F4007408FA0708307A02031C812ACC
:10150000822A452A832A0130F4007408F907882AC0
:1015100073087902031C8D2A8E2A3C2A8F2A080020
:1015200083120313B8002F30840083160313390885
:1015300083138000840A3A088000840A3B088000F4
:10154000840A3C088000840A3D0880002A30840018
:1015500034088000840A35088000840A3608800038
:10156000840A37088000840A380880008312031335
:101570006E08B5006D08B4003808F0000030F100C6
:101580002F30A8002808F2000530A9002908F30030
:101590000A128A153A220A128A1583120313B90114
:1015A000BA0100303A02053003193902031CD92A66
:1015B000DA2ADC2AF92AF92A3903FF3A043E2F3EB7
:1015C000840083130008A80039082A3E84002808F4
:1015D00080000130B9070318BA0A0030BA0700309A
:1015E0003A02053003193902031CF72AF82ADC2ACB
:1015F000F92A0530F0000030F1002A300A128A156D
:10160000FC240A128A15710883120313B7007008AC
:10161000B6003608A8002808B4003708A800280833
:10162000B5003430F0000030F1007C08A800280834
:10163000F2000230A9002908F3000A128A153A22A2
:101640000A128A15080083120313BA00303084008E
:10165000831603132E0883138000840A2F0880004A
:10166000840A30088000840A31088000840A320825
:101670008000840A330880002A3084002808800013
:10168000840A29088000840A2A088000840A2B081A
:101690008000840A2C088000840A2D0880008312B0
:1016A00003136C08B7006B08B6003A08F00000306E
:1016B000F1003030A8002808F2000630A9002908FF
:1016C000F3000A128A153A220A128A1583120313AA
:1016D000BB01BC0100303C02063003193B02031C75
:1016E000722B732B752B922B922B3B03FF3A053EEB
:1016F000303E840083130008A8003B082A3E840083
:10170000280880000130BB070318BC0A0030BC0762
:1017100000303C02063003193B02031C902B912B36
:10172000752B922B0630F0000030F1002A300A129F
:101730008A15FC240A128A15710883120313B90052
:101740007008B8003808A8002808B6003908A800B2
:101750002808B7003630F0000030F1007C08A800FF
:101760002808F2000230A9002908F3000A128A159D
:101770003A220A128A15080083120313C200373076
:1017800084009B30A8000408A9000B30AA00280898
:10179000840083170008AB00A80A2908840083137B
:1017A0002B088000A90AAA0BC72B2C30840090308C
:1017B000A8000408A9000B30AA0028088400831799
:1017C0000008AB00A80A2908840083132B088000B6
:1017D000A90AAA0BDD2B6A08C4006908C3004208E5
:1017E000F0000130F1003730A8002808F2000B307B
:1017F000A9002908F3000A128A153A220A128A154A
:1018000083120313C701C801003048020B300319CB
:101810004702031C0C2C0D2C0F2C2C2C2C2C4703BA
:10182000FF3A0A3E373E840083130008A8004708A9
:101830002C3E8400280880000130C7070318C80A1E
:101840000030C807003048020B3003194702031C60
:101850002A2C2B2C0F2C2C2C0B30F0000030F100FC
:101860002C300A128A15FC240A128A157108831278
:101870000313C6007008C5004508A8002808C30067
:101880004608A8002808C4004330F0000030F100EA
:101890007C08A8002808F2000230A9002908F300FB
:1018A0000A128A153A220A128A15080083160313AF
:1018B000CC01C51F5C2C5D2C6A2CC209C309C4096C
:1018C000C509C20A0319C30A0319C40A0319C50AC0
:1018D000CC01CC0AC91F6D2C6E2C7E2CC609C70901
:1018E000C809C909C60A0319C70A0319C80A03198E
:1018F000C90A0130CA004A08CC067E2C0030D0004C
:101900000030CF000030CE000030CD004508440448
:101910004304420403198D2C8E2CE12CCB01CB0AFD
:101920009F2C0130CA000310C20DC30DC40DC50D9C
:10193000CA0B932C0130CA004A08CB079F2CC51F45
:10194000A22CA32C912CA52CA52C0130CA0003108D
:10195000CD0DCE0DCF0DD00DCA0BA72C45084902D9
:10196000031DBC2C44084802031DBC2C430847023D
:10197000031DBC2C42084602031CBF2CC02CD02CDB
:101980004208C6024308031C430FC7024408031C55
:10199000440FC8024508031C450FC9024D14D02C42
:1019A00001300310C50CC40CC30CC20CFF3E031D58
:1019B000D12C0130CB02031DDE2CDF2CA52CE12C19
:1019C000E12C4C080319E52CE62CF22CCD09CE09AC
:1019D000CF09D009CD0A0319CE0A0319CF0A03197A
:1019E000D00AF22C5008C5004F08C4004E08C300AE
:1019F0004D08C200FB2C080083120313A20016300E
:101A000084008A30FF000A128A1100260A128A1501
:101A1000F2000A128A1100260A128A15F3007208CF
:101A2000A4007308A500A601A70170087104031D96
:101A30001A2D1B2D222D2409F0002509F100C92D96
:101A4000C92D222DA3012208840083130008F2006F
:101A5000F3017208F300F2017208A0007308A100FC
:101A60000130F2007208A20708302302031C392D4E
:101A70003A2D3C2DB72DB72D00302005F2008030D7
:101A80002105F3007208F4007308F500F601F70170
:101A900000302405F80080302505F90000302605C7
:101AA000FA0000302705FB007808F4067908F506EF
:101AB0007A08F6067B08F70677087604750474043E
:101AC0000319632D642D9C2D183084008A30FF008B
:101AD0000A128A1100260A128A15F2000A128A11C5
:101AE00000260A128A15F3007208F4007308F50044
:101AF000F601F7012408F8002508F9002608FA0085
:101B00002708FB0001300310F80DF90DFA0DFB0D4D
:101B1000FF3E031D832D7808F4067908F5067A0840
:101B2000F6067B08F7067708A7007608A600750872
:101B3000A5007408A400A52D0130F2000310A40D27
:101B4000A50DA60DA70DF20B9E2D0130F200720817
:101B5000A30701300310A00DA10DFF3E031DAA2D08
:101B600008302302031CB52DB62D3C2DB72D0130B6
:101B7000F0020030031CF103F10270087104031D30
:101B8000C22DC32D222DC42D2508F1002408F000FC
:101B9000C92D0800831603135108D5005208D6003A
:101BA0005308D7005408D80006300310D50DD60DC1
:101BB000D70DD80DFF3E031DD52D5808C500570879
:101BC000C4005608C3005508C2000030D9000930CF
:101BD000DA003D30DB000030DC005108DD00520847
:101BE000DE005308DF005408E00006300310DD0D6E
:101BF000DE0DDF0DE00DFF3E031DF62DDD09DE09D4
:101C0000DF09E009DD0A0319DE0A0319DF0A0319F7
:101C1000E00A5D08D9075E0803185E0F102E112E2A
:101C2000DA075F0803185F0F162E172EDB07600810
:101C30000318600ADC075C08C9005B08C8005A0882
:101C4000C7005908C6000A128A1556240A128A15B6
:101C5000831603134308E2004208E10001306202E8
:101C6000003003196102031C362E372E9B2E5108BB
:101C7000D5005208D6005308D7005408D8000430C5
:101C80000310D50DD60DD70DD80DFF3E031D402EE8
:101C90005808C5005708C4005608C3005508C200BC
:101CA0000030D9000930DA003D30DB000030DC00C4
:101CB0005108DD005208DE005308DF005408E00040
:101CC00004300310DD0DDE0DDF0DE00DFF3E031DC2
:101CD000612EDD09DE09DF09E009DD0A0319DE0AEC
:101CE0000319DF0A0319E00A5D08D9075E08031823
:101CF0005E0F7B2E7C2EDA075F0803185F0F812EA4
:101D0000822EDB0760080318600ADC075C08C90044
:101D10005B08C8005A08C7005908C6000A128A158D
:101D200056240A128A15831603134308E200420858
:101D3000E10018159B2E0130620200300319610288
:101D40000318A32EA42EB62E610899001812831230
:101D500003139817831603138717071383120313AC
:101D60001816831603139816B62EB62E08000030E8
:101D700083160313C200C300C401C40A0A168A11E1
:101D8000BB270A128A15013083160313C2000030E4
:101D9000C3000230E3006308C4000A168A11BB279F
:101DA0000A128A15023083160313C2000030C300E2
:101DB000C4010A168A11BB270A128A15033083163A
:101DC0000313C2000030C300C401C40A0A168A11FA
:101DD000BB270A128A15043083160313C200003091
:101DE000C300C4010A168A11BB270A128A150530DE
:101DF00083160313C2000030C300B030E300630851
:101E0000C4000A168A11BB270A128A1506308316E7
:101E10000313C2000030C300C4010A168A11BB2795
:101E20000A128A15073083160313C2000030C3005C
:101E3000C401C40A0A168A11BB270A128A15EE3099
:101E400083160313C2000330C300C4010A168A11AB
:101E5000BB270A128A15EF3083160313C200033022
:101E6000C3000530E3006308C4000A168A11BB27CB
:101E70000A128A15F03083160313C2000330C30020
:101E80000430E3006308C4000A168A11BB270A1253
:101E90008A15F13083160313C2000330C3001230D9
:101EA000E3006308C4000A168A11BB270A128A15C8
:101EB000F23083160313C2000330C3000630E30080
:101EC0006308C4000A168A11BB270A128A15F33068
:101ED00083160313C2000330C300C4010A168A111B
:101EE000BB270A128A15D23083160313C2000730AB
:101EF000C3000230E3006308C4000A168A11BB273E
:101F00000A128A15D33083160313C2000730C300A8
:101F10004030E3006308C4000A168A11BB270A1286
:101F20008A15E83083160313C2000330C300403023
:101F3000E3006308C4000A168A11BB270A128A1537
:101F4000E93083160313C2000330C3004030E300BE
:101F50006308C4000A168A11BB270A128A15EC30DE
:101F600083160313C2000330C3000530E300630887
:101F7000C4000A168A11BB270A128A15ED3083168F
:101F80000313C2000330C3004030E3006308C40001
:101F90000A168A11BB270A128A15E4308316031326
:101FA000C2000730C300C4010A168A11BB270A12F7
:101FB0008A15E53083160313C2000730C3002530AD
:101FC000E3006308C4000A168A11BB270A128A15A7
:101FD000003083160313D4000030D3002530D20024
:101FE0008030D1000A128A15CA250A128A150A16EB
:101FF0008A1160270A128A15FC2F0A128A111228E8
:102EB40083160313180C01395F2F0800C0308B00F0
:102EC400831603138C16080064008001840A040628
:102ED400031900340406672F063403340234003423
:102EE4000034003400340034063406340034003432
:102EF40000340034003400340034700883120317A3
:102F04008D00831603170C118C130C1483120317F2
:102F14000C088C2F0800F0008F2F83160313981CC5
:102F2400942F952F8F2F962F7008831203139900D7
:102F34000800063403340834003400340034003408
:102F4400003400340034003400340034003483127C
:102F54000313981CAE2FAF2FB32F18121816B32FCC
:102F6400B32F8C1EB62FB72FB32FB82F1A08BA2F32
:102F74000800831603134208831203178D00831677
:102F840003134408831203178C00831603178C134E
:102F94000C158B1355308D00AA308D008C148B17B3
:102FA400D32F831203130D1ED82FD92FD32F0D1215
:102FB4000800F400F501F601F42F0A168A11A92776
:102FC4000A168A11F20075087407F3007308840066
:102FD4007208831380000130F5070318F60A0030E5
:102FE400F607F42F71087602031DFA2F7008750294
:0C2FF400031CFD2FFE2FDF2FFF2F080015
:08400000FF3FFF3FFF3FFF3FC0
:04400E00F5FFFFFFBC
:00000001FF
